{
  "contractName": "CoinToFlip",
  "abi": [
    {
      "inputs": [],
      "payable": true,
      "stateMutability": "payable",
      "type": "constructor"
    },
    {
      "anonymous": false,
      "inputs": [
        {
          "indexed": true,
          "internalType": "address",
          "name": "beneficiary",
          "type": "address"
        },
        {
          "indexed": false,
          "internalType": "uint256",
          "name": "amount",
          "type": "uint256"
        }
      ],
      "name": "FailedPayment",
      "type": "event"
    },
    {
      "anonymous": false,
      "inputs": [
        {
          "indexed": true,
          "internalType": "address",
          "name": "beneficiary",
          "type": "address"
        },
        {
          "indexed": false,
          "internalType": "uint256",
          "name": "amount",
          "type": "uint256"
        }
      ],
      "name": "Payment",
      "type": "event"
    },
    {
      "anonymous": false,
      "inputs": [
        {
          "indexed": true,
          "internalType": "address",
          "name": "gambler",
          "type": "address"
        },
        {
          "indexed": false,
          "internalType": "uint256",
          "name": "reveal",
          "type": "uint256"
        },
        {
          "indexed": false,
          "internalType": "uint256",
          "name": "amount",
          "type": "uint256"
        }
      ],
      "name": "Reveal",
      "type": "event"
    },
    {
      "payable": true,
      "stateMutability": "payable",
      "type": "fallback"
    },
    {
      "constant": true,
      "inputs": [],
      "name": "lockedInBets",
      "outputs": [
        {
          "internalType": "uint256",
          "name": "",
          "type": "uint256"
        }
      ],
      "payable": false,
      "stateMutability": "view",
      "type": "function"
    },
    {
      "constant": true,
      "inputs": [],
      "name": "owner",
      "outputs": [
        {
          "internalType": "address payable",
          "name": "",
          "type": "address"
        }
      ],
      "payable": false,
      "stateMutability": "view",
      "type": "function"
    },
    {
      "constant": false,
      "inputs": [
        {
          "internalType": "address payable",
          "name": "beneficiary",
          "type": "address"
        },
        {
          "internalType": "uint256",
          "name": "withdrawAmount",
          "type": "uint256"
        }
      ],
      "name": "withdrawFunds",
      "outputs": [],
      "payable": false,
      "stateMutability": "nonpayable",
      "type": "function"
    },
    {
      "constant": false,
      "inputs": [],
      "name": "kill",
      "outputs": [],
      "payable": false,
      "stateMutability": "nonpayable",
      "type": "function"
    },
    {
      "constant": false,
      "inputs": [
        {
          "internalType": "uint8",
          "name": "betMask",
          "type": "uint8"
        }
      ],
      "name": "placeBet",
      "outputs": [],
      "payable": true,
      "stateMutability": "payable",
      "type": "function"
    },
    {
      "constant": false,
      "inputs": [],
      "name": "revealResult",
      "outputs": [],
      "payable": false,
      "stateMutability": "nonpayable",
      "type": "function"
    },
    {
      "constant": false,
      "inputs": [],
      "name": "refundBetBeforeReveal",
      "outputs": [],
      "payable": false,
      "stateMutability": "nonpayable",
      "type": "function"
    },
    {
      "constant": true,
      "inputs": [],
      "name": "checkHouseFunds",
      "outputs": [
        {
          "internalType": "uint256",
          "name": "",
          "type": "uint256"
        }
      ],
      "payable": false,
      "stateMutability": "view",
      "type": "function"
    }
  ],
  "bytecode": "0x6080604052336000806101000a81548173ffffffffffffffffffffffffffffffffffffffff021916908373ffffffffffffffffffffffffffffffffffffffff16021790555061105d806100536000396000f3fe60806040526004361061007b5760003560e01c8063c10753291161004e578063c107532914610133578063c1ed9ec51461018e578063c816a663146101a5578063df88126f146101d05761007b565b806341c0e1b51461007d57806343046844146100945780635dbc19f4146100c55780638da5cb5b146100dc575b005b34801561008957600080fd5b506100926101fb565b005b6100c3600480360360208110156100aa57600080fd5b81019080803560ff169060200190929190505050610335565b005b3480156100d157600080fd5b506100da610695565b005b3480156100e857600080fd5b506100f161090b565b604051808273ffffffffffffffffffffffffffffffffffffffff1673ffffffffffffffffffffffffffffffffffffffff16815260200191505060405180910390f35b34801561013f57600080fd5b5061018c6004803603604081101561015657600080fd5b81019080803573ffffffffffffffffffffffffffffffffffffffff16906020019092919080359060200190929190505050610930565b005b34801561019a57600080fd5b506101a3610a5e565b005b3480156101b157600080fd5b506101ba610bf4565b6040518082815260200191505060405180910390f35b3480156101dc57600080fd5b506101e5610ca1565b6040518082815260200191505060405180910390f35b3373ffffffffffffffffffffffffffffffffffffffff166000809054906101000a900473ffffffffffffffffffffffffffffffffffffffff1673ffffffffffffffffffffffffffffffffffffffff16146102a0576040517f08c379a0000000000000000000000000000000000000000000000000000000008152600401808060200182810382526022815260200180610f7e6022913960400191505060405180910390fd5b6000600154146102fb576040517f08c379a0000000000000000000000000000000000000000000000000000000008152600401808060200182810382526031815260200180610ff86031913960400191505060405180910390fd5b6000809054906101000a900473ffffffffffffffffffffffffffffffffffffffff1673ffffffffffffffffffffffffffffffffffffffff16ff5b6000349050662386f26fc1000081101580156103595750678ac7230489e800008111155b6103cb576040517f08c379a00000000000000000000000000000000000000000000000000000000081526004018080602001828103825260168152602001807f416d6f756e74206973206f7574206f662072616e67650000000000000000000081525060200191505060405180910390fd5b60008260ff161180156103e257506101008260ff16105b610454576040517f08c379a00000000000000000000000000000000000000000000000000000000081526004018080602001828103825260168152602001807f4d61736b2073686f756c6420626520612038206269740000000000000000000081525060200191505060405180910390fd5b6000600260003373ffffffffffffffffffffffffffffffffffffffff1673ffffffffffffffffffffffffffffffffffffffff1681526020019081526020016000209050600073ffffffffffffffffffffffffffffffffffffffff168160030160019054906101000a900473ffffffffffffffffffffffffffffffffffffffff1673ffffffffffffffffffffffffffffffffffffffff161461055d576040517f08c379a000000000000000000000000000000000000000000000000000000000815260040180806020018281038252601a8152602001807f4265742073686f756c6420626520656d7074792073746174652e00000000000081525060200191505060405180910390fd5b600061056884610ca7565b905060006105768483610cd7565b90508060016000828254019250508190555047600154106105ff576040517f08c379a000000000000000000000000000000000000000000000000000000000815260040180806020018281038252601d8152602001807f43616e6e6f74206166666f726420746f2070617920746865206265742e00000081525060200191505060405180910390fd5b838360000181905550818360010160006101000a81548160ff021916908360ff160217905550438360020181905550848360030160006101000a81548160ff021916908360ff160217905550338360030160016101000a81548173ffffffffffffffffffffffffffffffffffffffff021916908373ffffffffffffffffffffffffffffffffffffffff1602179055505050505050565b6000600260003373ffffffffffffffffffffffffffffffffffffffff1673ffffffffffffffffffffffffffffffffffffffff168152602001908152602001600020905060008160000154905060008260010160009054906101000a900460ff16905060008360020154905060008460030160019054906101000a900473ffffffffffffffffffffffffffffffffffffffff1690506000841161079f576040517f08c379a00000000000000000000000000000000000000000000000000000000081526004018080602001828103825260208152602001807f4265742073686f756c6420626520696e20616e2061637469766520737461746581525060200191505060405180910390fd5b8143116107f7576040517f08c379a000000000000000000000000000000000000000000000000000000000815260040180806020018281038252602b815260200180610fcd602b913960400191505060405180910390fd5b6000434083406040516020018083815260200182815260200192505050604051602081830303815290604052805190602001209050600060028260001c8161083b57fe5b069050600080905060008090506108528888610cd7565b905060008960030160009054906101000a900460ff1660ff168460020a1614610879578091505b8473ffffffffffffffffffffffffffffffffffffffff167fbd515cb7fe6810ea1d996c4efb3231c8b281498ca8062a4ec905d41943824bdf8460020a84604051808381526020018281526020019250505060405180910390a260008211156108e7576108e58583610db6565b505b8060016000828254039250508190555061090033610ea2565b505050505050505050565b6000809054906101000a900473ffffffffffffffffffffffffffffffffffffffff1681565b3373ffffffffffffffffffffffffffffffffffffffff166000809054906101000a900473ffffffffffffffffffffffffffffffffffffffff1673ffffffffffffffffffffffffffffffffffffffff16146109d5576040517f08c379a0000000000000000000000000000000000000000000000000000000008152600401808060200182810382526022815260200180610f7e6022913960400191505060405180910390fd5b4760015482011115610a4f576040517f08c379a000000000000000000000000000000000000000000000000000000000815260040180806020018281038252601d8152602001807f4974206973206c6172676572207468616e207468652062616c616e636500000081525060200191505060405180910390fd5b610a598282610db6565b505050565b6000600260003373ffffffffffffffffffffffffffffffffffffffff1673ffffffffffffffffffffffffffffffffffffffff168152602001908152602001600020905060008160010160009054906101000a900460ff16905060008260000154905060008360030160019054906101000a900473ffffffffffffffffffffffffffffffffffffffff16905083600201544311610b45576040517f08c379a000000000000000000000000000000000000000000000000000000000815260040180806020018281038252602d815260200180610fa0602d913960400191505060405180910390fd5b60008211610bbb576040517f08c379a00000000000000000000000000000000000000000000000000000000081526004018080602001828103825260208152602001807f4265742073686f756c6420626520696e20616e2061637469766520737461746581525060200191505060405180910390fd5b6000610bc78385610cd7565b905080600160008282540392505081905550610be233610ea2565b610bec8284610db6565b505050505050565b60003373ffffffffffffffffffffffffffffffffffffffff166000809054906101000a900473ffffffffffffffffffffffffffffffffffffffff1673ffffffffffffffffffffffffffffffffffffffff1614610c9b576040517f08c379a0000000000000000000000000000000000000000000000000000000008152600401808060200182810382526022815260200180610f7e6022913960400191505060405180910390fd5b47905090565b60015481565b6000805b60008360ff161115610cce57600183168101905060018360ff16901c9250610cab565b80915050919050565b60008160ff166000108015610cef575060028260ff16105b610d61576040517f08c379a000000000000000000000000000000000000000000000000000000000815260040180806020018281038252601b8152602001807f50726f626162696c697479206973206f7574206f662072616e6765000000000081525060200191505060405180910390fd5b600060646005850281610d7057fe5b0490506611c37937e08000811015610d8d576611c37937e0800090505b60006001840360ff166002018581610da157fe5b04905080828603019250829250505092915050565b60008273ffffffffffffffffffffffffffffffffffffffff166108fc839081150290604051600060405180830381858888f1935050505015610e49578273ffffffffffffffffffffffffffffffffffffffff167fd4f43975feb89f48dd30cabbb32011045be187d1e11c8ea9faa43efc35282519836040518082815260200191505060405180910390a260019050610e9c565b8273ffffffffffffffffffffffffffffffffffffffff167fac464fe4d3a86b9121261ac0a01dd981bfe0777c7c9d9c8f4473d31a9c0f9d2d836040518082815260200191505060405180910390a2600090505b92915050565b6000600260008373ffffffffffffffffffffffffffffffffffffffff1673ffffffffffffffffffffffffffffffffffffffff16815260200190815260200160002090506000816000018190555060008160010160006101000a81548160ff021916908360ff1602179055506000816002018190555060008160030160006101000a81548160ff021916908360ff16021790555060008160030160016101000a81548173ffffffffffffffffffffffffffffffffffffffff021916908373ffffffffffffffffffffffffffffffffffffffff160217905550505056fe4f6e6c79206f776e65722063616e2063616c6c20746869732066756e6374696f6e2e7468652062657420697320616c7265616479206d696e65642e206e6f742061626c6520746f20726566756e642e72657665616c526573756c7420696e207468652073616d6520626c6f636b20617320706c61636562657421416c6c20626574732073686f756c642062652070726f636573736564206265666f72652073656c662d6465737472756374a265627a7a723158202b54892d7a71210bcfa0c364b06c23145afc1da967b177d214f1cde45573e88664736f6c63430005100032",
  "source": "pragma solidity ^0.5.8;\n\ncontract CoinToFlip {\n    uint constant MAX_CASE = 2;\n    uint constant MINIMUM_BET = 0.01 ether;\n    uint constant MAXIMUM_BET = 10 ether;\n    uint constant HOUSE_FEE_PERCENT = 5;\n    uint constant HOUSE_MINIMUM_FEE = 0.005 ether;\n\n    address payable public owner;\n    // betting but not yet decided, thus locked!\n    uint public lockedInBets;\n\n    struct Bet {\n        uint amount;\n        // 0000 0011 both sides -> not available case\n        uint8 numOfBetBit;\n        // player's betting block number\n        uint placeBlockNumber;\n        // 0000 0010 front side; 50% chance\n        // 0000 0001 back side; 50% chance\n        uint8 mask;\n        address payable gambler;\n    }\n\n    mapping(address => Bet) bets;\n\n    // 1 or 2\n    event Reveal(address indexed gambler, uint reveal, uint amount);\n    event Payment(address indexed beneficiary, uint amount);\n    event FailedPayment(address indexed beneficiary, uint amount);\n\n    constructor() public payable {\n        owner = msg.sender;\n    }\n    \n    modifier onlyOwner {\n        require(owner == msg.sender, 'Only owner can call this function.');\n        _;\n    }\n\n    function withdrawFunds(address payable beneficiary, uint withdrawAmount) external onlyOwner {\n        // withdrawn possible amount should be smaller than current contract balance\n        require(withdrawAmount + lockedInBets <= address(this).balance, \"It is larger than the balance\");\n        sendFunds(beneficiary, withdrawAmount);\n    }\n\n    function kill() external onlyOwner {\n        // currently executing game should not exist before self-destructing\n        require(lockedInBets == 0, \"All bets should be processed before self-destruct\");\n        selfdestruct(owner);\n    }\n\n    function () external payable {}\n\n    function sendFunds(address payable beneficiary, uint amount) private returns (bool) {\n        // address send returns boolean value\n        if (beneficiary.send(amount)) {\n            emit Payment(beneficiary, amount);\n            return true;\n        }\n        emit FailedPayment(beneficiary, amount);\n        return false;\n    }\n\n    function countBits(uint8 _num) internal pure returns (uint8) {\n        uint8 count;\n        while (_num > 0) {\n            count += _num & 1;\n            _num >>= 1;\n        }\n        return count;\n    }\n\n    function placeBet(uint8 betMask) external payable {\n        uint amount = msg.value;\n        require(amount >= MINIMUM_BET && amount <= MAXIMUM_BET, \"Amount is out of range\");\n        require(betMask > 0 && betMask < 256, \"Mask should be a 8 bit\");\n\n        Bet storage bet = bets[msg.sender];\n        // address(0) == null\n        require(bet.gambler == address(0), \"Bet should be empty state.\");\n        \n        uint8 numOfBetBit = countBits(betMask);\n        uint possibleWinningAmount = getWinningAmount(amount, numOfBetBit);\n        lockedInBets += possibleWinningAmount;\n        require(lockedInBets < address(this).balance, \"Cannot afford to pay the bet.\");\n\n        bet.amount = amount;\n        bet.numOfBetBit = numOfBetBit;\n        bet.placeBlockNumber = block.number;\n        bet.mask = betMask;\n        bet.gambler = msg.sender;\n    }\n\n    function getWinningAmount(uint amount, uint8 numOfBetBit) private pure returns (uint winningAmount) {\n        require(0 < numOfBetBit && numOfBetBit < MAX_CASE, \"Probability is out of range\");\n        uint houseFee = (amount * HOUSE_FEE_PERCENT) / 100;\n        \n        if (houseFee < HOUSE_MINIMUM_FEE) {\n            houseFee = HOUSE_MINIMUM_FEE;\n        }\n\n        uint reward = amount / (MAX_CASE + (numOfBetBit - 1));\n        winningAmount = (amount - houseFee) + reward;\n        \n        return winningAmount;\n    }\n\n    function revealResult() external {\n        Bet storage bet = bets[msg.sender];\n        uint amount = bet.amount;\n        uint8 numOfBetBit = bet.numOfBetBit;\n        uint placeBlockNumber = bet.placeBlockNumber;\n        address payable gambler = bet.gambler;\n\n        require(amount > 0, \"Bet should be in an active state\");\n        require(block.number > placeBlockNumber, \"revealResult in the same block as placebet!\");\n\n        bytes32 random = keccak256(abi.encodePacked(blockhash(block.number), blockhash(placeBlockNumber)));\n        uint reveal = uint(random) % MAX_CASE; // 0 or 1\n\n        uint winningAmount = 0;\n        uint possibleWinningAmount = 0;\n        possibleWinningAmount = getWinningAmount(amount, numOfBetBit);\n\n        if ((2 ** reveal) & bet.mask != 0) {\n            winningAmount = possibleWinningAmount;\n        }\n\n        emit Reveal(gambler, 2 ** reveal, winningAmount);\n\n        if (winningAmount > 0) {\n            sendFunds(gambler, winningAmount);\n        }\n\n        lockedInBets -= possibleWinningAmount;\n        clearBet(msg.sender);\n    }\n\n    function clearBet(address player) private {\n        Bet storage bet = bets[player];\n        \n        bet.amount = 0;\n        bet.numOfBetBit = 0;\n        bet.placeBlockNumber = 0;\n        bet.mask = 0;\n        // make address null\n        bet.gambler = address(0);\n    }\n\n    function refundBetBeforeReveal() external {\n        Bet storage bet = bets[msg.sender];\n        uint8 numOfBetBit = bet.numOfBetBit;\n        uint amount = bet.amount;\n        address payable gambler = bet.gambler;\n\n        require(block.number > bet.placeBlockNumber, \"the bet is already mined. not able to refund.\");\n        require(amount > 0, \"Bet should be in an active state\");\n\n        uint possibleWinningAmount;\n        possibleWinningAmount = getWinningAmount(amount, numOfBetBit);\n        lockedInBets -= possibleWinningAmount;\n        \n        clearBet(msg.sender);\n        sendFunds(gambler, amount);\n    }\n\n    function checkHouseFunds() public view onlyOwner returns (uint) {\n        return address(this).balance;\n    }\n}\n",
  "sourcePath": "/media/jypthemiracle/9C33-6BBD/defi-dapp/contracts/CoinToFlip.sol",
  "compiler": {
    "name": "solc",
    "version": "0.5.16+commit.9c3226ce.Emscripten.clang"
  },
  "schemaVersion": "3.4.4",
  "updatedAt": "2022-01-30T20:08:10.827Z",
  "networkType": "ethereum",
  "devdoc": {
    "methods": {}
  },
  "userdoc": {
    "methods": {}
  }
}